{
  "_format": "hh-sol-artifact-1",
  "contractName": "TipCreator",
  "sourceName": "contracts/TipCreator.sol",
  "abi": [
    {
      "inputs": [],
      "stateMutability": "nonpayable",
      "type": "constructor"
    },
    {
      "anonymous": false,
      "inputs": [
        {
          "indexed": true,
          "internalType": "address",
          "name": "from",
          "type": "address"
        },
        {
          "indexed": false,
          "internalType": "uint256",
          "name": "timestamp",
          "type": "uint256"
        },
        {
          "indexed": false,
          "internalType": "string",
          "name": "name",
          "type": "string"
        },
        {
          "indexed": false,
          "internalType": "string",
          "name": "message",
          "type": "string"
        }
      ],
      "name": "NewComment",
      "type": "event"
    },
    {
      "inputs": [],
      "name": "getComments",
      "outputs": [
        {
          "components": [
            {
              "internalType": "address",
              "name": "from",
              "type": "address"
            },
            {
              "internalType": "uint256",
              "name": "timestamp",
              "type": "uint256"
            },
            {
              "internalType": "string",
              "name": "name",
              "type": "string"
            },
            {
              "internalType": "string",
              "name": "message",
              "type": "string"
            }
          ],
          "internalType": "struct TipCreator.Comment[]",
          "name": "",
          "type": "tuple[]"
        }
      ],
      "stateMutability": "view",
      "type": "function"
    },
    {
      "inputs": [
        {
          "internalType": "string",
          "name": "_name",
          "type": "string"
        },
        {
          "internalType": "string",
          "name": "_message",
          "type": "string"
        }
      ],
      "name": "tipCreator",
      "outputs": [],
      "stateMutability": "payable",
      "type": "function"
    },
    {
      "inputs": [],
      "name": "withdrawTips",
      "outputs": [],
      "stateMutability": "nonpayable",
      "type": "function"
    }
  ],
  "bytecode": "0x608060405234801561001057600080fd5b50600080546001600160a01b03191633179055610780806100326000396000f3fe6080604052600436106100345760003560e01c8063124bc392146100395780633aaa74b21461004e57806391f3410c14610063575b600080fd5b61004c610047366004610574565b61008e565b005b34801561005a57600080fd5b5061004c61027d565b34801561006f57600080fd5b506100786102b1565b6040516100859190610620565b60405180910390f35b60003411610122576040517f08c379a000000000000000000000000000000000000000000000000000000000815260206004820152602160248201527f54697020616d6f756e74206d7573742062652067726561746572207468616e2060448201527f3000000000000000000000000000000000000000000000000000000000000000606482015260840160405180910390fd5b6040805160808101825233815242602080830191825292820185815260608301859052600180548082018255600091909152835160049091027fb10e2d527612073b26eecdfd717e6a320cf44b4afac2b0732d9fcbe2b7fa0cf6810180546001600160a01b03939093167fffffffffffffffffffffffff000000000000000000000000000000000000000090931692909217825592517fb10e2d527612073b26eecdfd717e6a320cf44b4afac2b0732d9fcbe2b7fa0cf78401559051805193949193610215937fb10e2d527612073b26eecdfd717e6a320cf44b4afac2b0732d9fcbe2b7fa0cf801929190910190610454565b5060608201518051610231916003840191602090910190610454565b505050336001600160a01b03167f29dd0d197a7f0876a1712aa68ce401d21ad4eacd5930845c046d54e2ce635c1a428484604051610271939291906106c4565b60405180910390a25050565b600080546040516001600160a01b03909116914780156108fc02929091818181858888f193505050506102af57600080fd5b565b60606001805480602002602001604051908101604052809291908181526020016000905b8282101561044b576000848152602090819020604080516080810182526004860290920180546001600160a01b0316835260018101549383019390935260028301805492939291840191610328906106f9565b80601f0160208091040260200160405190810160405280929190818152602001828054610354906106f9565b80156103a15780601f10610376576101008083540402835291602001916103a1565b820191906000526020600020905b81548152906001019060200180831161038457829003601f168201915b505050505081526020016003820180546103ba906106f9565b80601f01602080910402602001604051908101604052809291908181526020018280546103e6906106f9565b80156104335780601f1061040857610100808354040283529160200191610433565b820191906000526020600020905b81548152906001019060200180831161041657829003601f168201915b505050505081525050815260200190600101906102d5565b50505050905090565b828054610460906106f9565b90600052602060002090601f01602090048101928261048257600085556104c8565b82601f1061049b57805160ff19168380011785556104c8565b828001600101855582156104c8579182015b828111156104c85782518255916020019190600101906104ad565b506104d49291506104d8565b5090565b5b808211156104d457600081556001016104d9565b600082601f8301126104fd578081fd5b813567ffffffffffffffff8082111561051857610518610734565b604051601f8301601f19908116603f0116810190828211818310171561054057610540610734565b81604052838152866020858801011115610558578485fd5b8360208701602083013792830160200193909352509392505050565b60008060408385031215610586578182fd5b823567ffffffffffffffff8082111561059d578384fd5b6105a9868387016104ed565b935060208501359150808211156105be578283fd5b506105cb858286016104ed565b9150509250929050565b60008151808452815b818110156105fa576020818501810151868301820152016105de565b8181111561060b5782602083870101525b50601f01601f19169290920160200192915050565b60006020808301818452808551808352604092508286019150828160051b870101848801865b838110156106b657603f19898403018552815160806001600160a01b0382511685528882015189860152878201518189870152610685828701826105d5565b915050606080830151925085820381870152506106a281836105d5565b968901969450505090860190600101610646565b509098975050505050505050565b6000848252606060208301526106dd60608301856105d5565b82810360408401526106ef81856105d5565b9695505050505050565b600181811c9082168061070d57607f821691505b6020821081141561072e57634e487b7160e01b600052602260045260246000fd5b50919050565b634e487b7160e01b600052604160045260246000fdfea264697066735822122052b30364548113c47b3ce68414a15d01441a75e7ed4292921f18979f857742a064736f6c63430008030033",
  "linkReferences": {},
  "deployedLinkReferences": {}
}